{
  "contractName": "PandaNFT",
  "abi": [
    {
      "inputs": [
        {
          "internalType": "string",
          "name": "_name",
          "type": "string"
        },
        {
          "internalType": "string",
          "name": "_symbol",
          "type": "string"
        }
      ],
      "stateMutability": "nonpayable",
      "type": "constructor"
    },
    {
      "anonymous": false,
      "inputs": [
        {
          "indexed": true,
          "internalType": "address",
          "name": "owner",
          "type": "address"
        },
        {
          "indexed": true,
          "internalType": "address",
          "name": "approved",
          "type": "address"
        },
        {
          "indexed": true,
          "internalType": "uint256",
          "name": "tokenId",
          "type": "uint256"
        }
      ],
      "name": "Approval",
      "type": "event"
    },
    {
      "anonymous": false,
      "inputs": [
        {
          "indexed": true,
          "internalType": "address",
          "name": "owner",
          "type": "address"
        },
        {
          "indexed": true,
          "internalType": "address",
          "name": "operator",
          "type": "address"
        },
        {
          "indexed": false,
          "internalType": "bool",
          "name": "approved",
          "type": "bool"
        }
      ],
      "name": "ApprovalForAll",
      "type": "event"
    },
    {
      "anonymous": false,
      "inputs": [
        {
          "indexed": true,
          "internalType": "address",
          "name": "owner",
          "type": "address"
        },
        {
          "indexed": true,
          "internalType": "uint256",
          "name": "id",
          "type": "uint256"
        },
        {
          "indexed": true,
          "internalType": "uint256",
          "name": "dna",
          "type": "uint256"
        }
      ],
      "name": "NewPanda",
      "type": "event"
    },
    {
      "anonymous": false,
      "inputs": [
        {
          "indexed": true,
          "internalType": "address",
          "name": "previousOwner",
          "type": "address"
        },
        {
          "indexed": true,
          "internalType": "address",
          "name": "newOwner",
          "type": "address"
        }
      ],
      "name": "OwnershipTransferred",
      "type": "event"
    },
    {
      "anonymous": false,
      "inputs": [
        {
          "indexed": true,
          "internalType": "address",
          "name": "from",
          "type": "address"
        },
        {
          "indexed": true,
          "internalType": "address",
          "name": "to",
          "type": "address"
        },
        {
          "indexed": true,
          "internalType": "uint256",
          "name": "tokenId",
          "type": "uint256"
        }
      ],
      "name": "Transfer",
      "type": "event"
    },
    {
      "inputs": [
        {
          "internalType": "address",
          "name": "to",
          "type": "address"
        },
        {
          "internalType": "uint256",
          "name": "tokenId",
          "type": "uint256"
        }
      ],
      "name": "approve",
      "outputs": [],
      "stateMutability": "nonpayable",
      "type": "function"
    },
    {
      "inputs": [
        {
          "internalType": "address",
          "name": "owner",
          "type": "address"
        }
      ],
      "name": "balanceOf",
      "outputs": [
        {
          "internalType": "uint256",
          "name": "",
          "type": "uint256"
        }
      ],
      "stateMutability": "view",
      "type": "function",
      "constant": true
    },
    {
      "inputs": [],
      "name": "divineLeft",
      "outputs": [
        {
          "internalType": "uint256",
          "name": "",
          "type": "uint256"
        }
      ],
      "stateMutability": "view",
      "type": "function",
      "constant": true
    },
    {
      "inputs": [
        {
          "internalType": "uint256",
          "name": "tokenId",
          "type": "uint256"
        }
      ],
      "name": "getApproved",
      "outputs": [
        {
          "internalType": "address",
          "name": "",
          "type": "address"
        }
      ],
      "stateMutability": "view",
      "type": "function",
      "constant": true
    },
    {
      "inputs": [],
      "name": "impLeft",
      "outputs": [
        {
          "internalType": "uint256",
          "name": "",
          "type": "uint256"
        }
      ],
      "stateMutability": "view",
      "type": "function",
      "constant": true
    },
    {
      "inputs": [
        {
          "internalType": "address",
          "name": "owner",
          "type": "address"
        },
        {
          "internalType": "address",
          "name": "operator",
          "type": "address"
        }
      ],
      "name": "isApprovedForAll",
      "outputs": [
        {
          "internalType": "bool",
          "name": "",
          "type": "bool"
        }
      ],
      "stateMutability": "view",
      "type": "function",
      "constant": true
    },
    {
      "inputs": [],
      "name": "mintingFee",
      "outputs": [
        {
          "internalType": "uint256",
          "name": "",
          "type": "uint256"
        }
      ],
      "stateMutability": "view",
      "type": "function",
      "constant": true
    },
    {
      "inputs": [],
      "name": "name",
      "outputs": [
        {
          "internalType": "string",
          "name": "",
          "type": "string"
        }
      ],
      "stateMutability": "view",
      "type": "function",
      "constant": true
    },
    {
      "inputs": [],
      "name": "owner",
      "outputs": [
        {
          "internalType": "address",
          "name": "",
          "type": "address"
        }
      ],
      "stateMutability": "view",
      "type": "function",
      "constant": true
    },
    {
      "inputs": [
        {
          "internalType": "uint256",
          "name": "tokenId",
          "type": "uint256"
        }
      ],
      "name": "ownerOf",
      "outputs": [
        {
          "internalType": "address",
          "name": "",
          "type": "address"
        }
      ],
      "stateMutability": "view",
      "type": "function",
      "constant": true
    },
    {
      "inputs": [],
      "name": "renounceOwnership",
      "outputs": [],
      "stateMutability": "nonpayable",
      "type": "function"
    },
    {
      "inputs": [
        {
          "internalType": "address",
          "name": "from",
          "type": "address"
        },
        {
          "internalType": "address",
          "name": "to",
          "type": "address"
        },
        {
          "internalType": "uint256",
          "name": "tokenId",
          "type": "uint256"
        }
      ],
      "name": "safeTransferFrom",
      "outputs": [],
      "stateMutability": "nonpayable",
      "type": "function"
    },
    {
      "inputs": [
        {
          "internalType": "address",
          "name": "from",
          "type": "address"
        },
        {
          "internalType": "address",
          "name": "to",
          "type": "address"
        },
        {
          "internalType": "uint256",
          "name": "tokenId",
          "type": "uint256"
        },
        {
          "internalType": "bytes",
          "name": "_data",
          "type": "bytes"
        }
      ],
      "name": "safeTransferFrom",
      "outputs": [],
      "stateMutability": "nonpayable",
      "type": "function"
    },
    {
      "inputs": [
        {
          "internalType": "address",
          "name": "operator",
          "type": "address"
        },
        {
          "internalType": "bool",
          "name": "approved",
          "type": "bool"
        }
      ],
      "name": "setApprovalForAll",
      "outputs": [],
      "stateMutability": "nonpayable",
      "type": "function"
    },
    {
      "inputs": [
        {
          "internalType": "bytes4",
          "name": "interfaceId",
          "type": "bytes4"
        }
      ],
      "name": "supportsInterface",
      "outputs": [
        {
          "internalType": "bool",
          "name": "",
          "type": "bool"
        }
      ],
      "stateMutability": "view",
      "type": "function",
      "constant": true
    },
    {
      "inputs": [],
      "name": "symbol",
      "outputs": [
        {
          "internalType": "string",
          "name": "",
          "type": "string"
        }
      ],
      "stateMutability": "view",
      "type": "function",
      "constant": true
    },
    {
      "inputs": [
        {
          "internalType": "uint256",
          "name": "tokenId",
          "type": "uint256"
        }
      ],
      "name": "tokenURI",
      "outputs": [
        {
          "internalType": "string",
          "name": "",
          "type": "string"
        }
      ],
      "stateMutability": "view",
      "type": "function",
      "constant": true
    },
    {
      "inputs": [
        {
          "internalType": "address",
          "name": "from",
          "type": "address"
        },
        {
          "internalType": "address",
          "name": "to",
          "type": "address"
        },
        {
          "internalType": "uint256",
          "name": "tokenId",
          "type": "uint256"
        }
      ],
      "name": "transferFrom",
      "outputs": [],
      "stateMutability": "nonpayable",
      "type": "function"
    },
    {
      "inputs": [
        {
          "internalType": "address",
          "name": "newOwner",
          "type": "address"
        }
      ],
      "name": "transferOwnership",
      "outputs": [],
      "stateMutability": "nonpayable",
      "type": "function"
    },
    {
      "inputs": [
        {
          "internalType": "string",
          "name": "_name",
          "type": "string"
        }
      ],
      "name": "mintPanda",
      "outputs": [],
      "stateMutability": "payable",
      "type": "function",
      "payable": true
    },
    {
      "inputs": [
        {
          "internalType": "uint256",
          "name": "_id",
          "type": "uint256"
        }
      ],
      "name": "hatchPanda",
      "outputs": [],
      "stateMutability": "nonpayable",
      "type": "function"
    },
    {
      "inputs": [
        {
          "internalType": "uint256",
          "name": "_divine",
          "type": "uint256"
        },
        {
          "internalType": "uint256",
          "name": "_imp",
          "type": "uint256"
        }
      ],
      "name": "setRarities",
      "outputs": [],
      "stateMutability": "nonpayable",
      "type": "function"
    },
    {
      "inputs": [
        {
          "internalType": "uint256",
          "name": "_fee",
          "type": "uint256"
        }
      ],
      "name": "setMintingFee",
      "outputs": [],
      "stateMutability": "nonpayable",
      "type": "function"
    },
    {
      "inputs": [],
      "name": "withdrawBNB",
      "outputs": [],
      "stateMutability": "nonpayable",
      "type": "function"
    }
  ],
  "bytecode": "0x6080604052662386f26fc10000600855603260095561012c600a553480156200002757600080fd5b50604051620020c8380380620020c88339810160408190526200004a9162000245565b81518290829062000063906000906020850190620000f4565b50805162000079906001906020840190620000f4565b50505062000096620000906200009e60201b60201c565b620000a2565b5050620002ff565b3390565b600680546001600160a01b038381166001600160a01b0319831681179093556040519116919082907f8be0079c531659141344cd1fd0a4f28419497f9722a3daafe3b4186f6b6457e090600090a35050565b8280546200010290620002ac565b90600052602060002090601f01602090048101928262000126576000855562000171565b82601f106200014157805160ff191683800117855562000171565b8280016001018555821562000171579182015b828111156200017157825182559160200191906001019062000154565b506200017f92915062000183565b5090565b5b808211156200017f576000815560010162000184565b600082601f830112620001ab578081fd5b81516001600160401b0380821115620001c857620001c8620002e9565b6040516020601f8401601f1916820181018381118382101715620001f057620001f0620002e9565b604052838252858401810187101562000207578485fd5b8492505b838310156200022a57858301810151828401820152918201916200020b565b838311156200023b57848185840101525b5095945050505050565b6000806040838503121562000258578182fd5b82516001600160401b03808211156200026f578384fd5b6200027d868387016200019a565b9350602085015191508082111562000293578283fd5b50620002a2858286016200019a565b9150509250929050565b600281046001821680620002c157607f821691505b60208210811415620002e357634e487b7160e01b600052602260045260246000fd5b50919050565b634e487b7160e01b600052604160045260246000fd5b611db9806200030f6000396000f3fe60806040526004361061014b5760003560e01c806370a08231116100b6578063bfb0447c1161006f578063bfb0447c14610382578063c87b56dd14610397578063c9aa7c5a146103b7578063d3ed229b146103ca578063e985e9c5146103ea578063f2fde38b1461040a5761014b565b806370a08231146102e3578063715018a6146103035780638da5cb5b1461031857806395d89b411461032d578063a22cb46514610342578063b88d4fde146103625761014b565b806323b872dd1161010857806323b872dd1461022c57806342842e0e1461024c57806350bd64121461026c5780635991e6141461028e5780635a64ad95146102ae5780636352211e146102c35761014b565b806301ffc9a71461015057806306fdde0314610186578063081812fc146101a8578063095ea7b3146101d55780631d111d13146101f7578063238a47091461020c575b600080fd5b34801561015c57600080fd5b5061017061016b366004611581565b61042a565b60405161017d9190611704565b60405180910390f35b34801561019257600080fd5b5061019b610472565b60405161017d919061170f565b3480156101b457600080fd5b506101c86101c33660046115ff565b610504565b60405161017d91906116b3565b3480156101e157600080fd5b506101f56101f0366004611558565b610550565b005b34801561020357600080fd5b506101f56105e8565b34801561021857600080fd5b506101f56102273660046115ff565b61066d565b34801561023857600080fd5b506101f561024736600461146a565b6106c4565b34801561025857600080fd5b506101f561026736600461146a565b6106fc565b34801561027857600080fd5b50610281610717565b60405161017d9190611c2a565b34801561029a57600080fd5b506101f56102a9366004611617565b61071d565b3480156102ba57600080fd5b50610281610767565b3480156102cf57600080fd5b506101c86102de3660046115ff565b61076d565b3480156102ef57600080fd5b506102816102fe36600461141e565b6107a2565b34801561030f57600080fd5b506101f56107e6565b34801561032457600080fd5b506101c8610831565b34801561033957600080fd5b5061019b610840565b34801561034e57600080fd5b506101f561035d36600461151e565b61084f565b34801561036e57600080fd5b506101f561037d3660046114a5565b610861565b34801561038e57600080fd5b506102816108a0565b3480156103a357600080fd5b5061019b6103b23660046115ff565b6108a6565b6101f56103c53660046115b9565b610929565b3480156103d657600080fd5b506101f56103e53660046115ff565b610983565b3480156103f657600080fd5b50610170610405366004611438565b610986565b34801561041657600080fd5b506101f561042536600461141e565b6109b4565b60006001600160e01b031982166380ac58cd60e01b148061045b57506001600160e01b03198216635b5e139f60e01b145b8061046a575061046a82610a22565b90505b919050565b60606000805461048190611cc1565b80601f01602080910402602001604051908101604052809291908181526020018280546104ad90611cc1565b80156104fa5780601f106104cf576101008083540402835291602001916104fa565b820191906000526020600020905b8154815290600101906020018083116104dd57829003601f168201915b5050505050905090565b600061050f82610a3b565b6105345760405162461bcd60e51b815260040161052b90611a21565b60405180910390fd5b506000908152600460205260409020546001600160a01b031690565b600061055b8261076d565b9050806001600160a01b0316836001600160a01b0316141561058f5760405162461bcd60e51b815260040161052b90611b98565b806001600160a01b03166105a1610a58565b6001600160a01b031614806105bd57506105bd81610405610a58565b6105d95760405162461bcd60e51b815260040161052b906118fc565b6105e38383610a5c565b505050565b6105f0610a58565b6001600160a01b0316610601610831565b6001600160a01b0316146106275760405162461bcd60e51b815260040161052b90611a6d565b6000610631610831565b6040519091506001600160a01b038216904780156108fc02916000818181858888f19350505050158015610669573d6000803e3d6000fd5b5050565b610675610a58565b6001600160a01b0316610686610831565b6001600160a01b0316146106ac5760405162461bcd60e51b815260040161052b90611a6d565b6106be81670de0b6b3a7640000611c5f565b60085550565b6106d56106cf610a58565b82610aca565b6106f15760405162461bcd60e51b815260040161052b90611bd9565b6105e3838383610b4f565b6105e383838360405180602001604052806000815250610861565b600a5481565b610725610a58565b6001600160a01b0316610736610831565b6001600160a01b03161461075c5760405162461bcd60e51b815260040161052b90611a6d565b600991909155600a55565b60085481565b6000818152600260205260408120546001600160a01b03168061046a5760405162461bcd60e51b815260040161052b906119a3565b60006001600160a01b0382166107ca5760405162461bcd60e51b815260040161052b90611959565b506001600160a01b031660009081526003602052604090205490565b6107ee610a58565b6001600160a01b03166107ff610831565b6001600160a01b0316146108255760405162461bcd60e51b815260040161052b90611a6d565b61082f6000610c7c565b565b6006546001600160a01b031690565b60606001805461048190611cc1565b61066961085a610a58565b8383610cce565b61087261086c610a58565b83610aca565b61088e5760405162461bcd60e51b815260040161052b90611bd9565b61089a84848484610d71565b50505050565b60095481565b60606108b182610a3b565b6108cd5760405162461bcd60e51b815260040161052b90611b49565b60006108d7610da4565b905060008151116108f75760405180602001604052806000815250610922565b8061090184610db6565b604051602001610912929190611664565b6040516020818303038152906040525b9392505050565b6000600954600a5461093b9190611c33565b116109585760405162461bcd60e51b815260040161052b90611aa2565b60085434146109795760405162461bcd60e51b815260040161052b9061186c565b6109833382610ed1565b50565b6001600160a01b03918216600090815260056020908152604080832093909416825291909152205460ff1690565b6109bc610a58565b6001600160a01b03166109cd610831565b6001600160a01b0316146109f35760405162461bcd60e51b815260040161052b90611a6d565b6001600160a01b038116610a195760405162461bcd60e51b815260040161052b90611774565b61098381610c7c565b6001600160e01b031981166301ffc9a760e01b14919050565b6000908152600260205260409020546001600160a01b0316151590565b3390565b600081815260046020526040902080546001600160a01b0319166001600160a01b0384169081179091558190610a918261076d565b6001600160a01b03167f8c5be1e5ebec7d5bd14f71427d1e84f3dd0314c0f7b2291e5b200ac8c7c3b92560405160405180910390a45050565b6000610ad582610a3b565b610af15760405162461bcd60e51b815260040161052b906118b0565b6000610afc8361076d565b9050806001600160a01b0316846001600160a01b03161480610b375750836001600160a01b0316610b2c84610504565b6001600160a01b0316145b80610b475750610b478185610986565b949350505050565b826001600160a01b0316610b628261076d565b6001600160a01b031614610b885760405162461bcd60e51b815260040161052b90611b00565b6001600160a01b038216610bae5760405162461bcd60e51b815260040161052b906117f1565b610bb98383836105e3565b610bc4600082610a5c565b6001600160a01b0383166000908152600360205260408120805460019290610bed908490611c7e565b90915550506001600160a01b0382166000908152600360205260408120805460019290610c1b908490611c33565b909155505060008181526002602052604080822080546001600160a01b0319166001600160a01b0386811691821790925591518493918716917fddf252ad1be2c89b69c2b068fc378daa952ba7f163c4a11628f55a4df523b3ef91a4505050565b600680546001600160a01b038381166001600160a01b0319831681179093556040519116919082907f8be0079c531659141344cd1fd0a4f28419497f9722a3daafe3b4186f6b6457e090600090a35050565b816001600160a01b0316836001600160a01b03161415610d005760405162461bcd60e51b815260040161052b90611835565b6001600160a01b0383811660008181526005602090815260408083209487168084529490915290819020805460ff1916851515179055517f17307eab39ab6107e8899845ad3d59bd9653f200f220920489ca2b5937696c3190610d64908590611704565b60405180910390a3505050565b610d7c848484610b4f565b610d8884848484611077565b61089a5760405162461bcd60e51b815260040161052b90611722565b60408051602081019091526000815290565b606081610ddb57506040805180820190915260018152600360fc1b602082015261046d565b8160005b8115610e055780610def81611cfc565b9150610dfe9050600a83611c4b565b9150610ddf565b60008167ffffffffffffffff811115610e2e57634e487b7160e01b600052604160045260246000fd5b6040519080825280601f01601f191660200182016040528015610e58576020820181803683370190505b5090505b8415610b4757610e6d600183611c7e565b9150610e7a600a86611d17565b610e85906030611c33565b60f81b818381518110610ea857634e487b7160e01b600052603260045260246000fd5b60200101906001600160f81b031916908160001a905350610eca600a86611c4b565b9450610e5c565b6000610ee3662386f26fc10000611192565b90506000610eff600a54600954610efa9190611c33565b611192565b9050600a548160ff161115610f2c57600160096000828254610f219190611c7e565b90915550610f459050565b6001600a6000828254610f3f9190611c7e565b90915550505b6040805160e0810182528481526007805460208084019190915292820185905260016060830181905260ff851660808401524260a0840152600060c08401819052600b8054928301815590528251805193948594929093027f0175b7a638427703f0dbe7bb9bbf987a2551717b34e79f33b5b1008d1fa01db90192610fcf928492909101906112fe565b506020820151600182015560408201516002820155606082015160038201556080820151600482015560a0820151600582015560c0909101516006909101805460ff191691151591909117905560075461102a9086906111cc565b60075460405184919033907f9e9a841d6115d7491c6a09fd7a1d5c9cd28483c0e7a649ff0501933bb3ca83c490600090a46007805490600061106b83611cfc565b91905055505050505050565b600061108b846001600160a01b03166111e6565b1561118757836001600160a01b031663150b7a026110a7610a58565b8786866040518563ffffffff1660e01b81526004016110c994939291906116c7565b602060405180830381600087803b1580156110e357600080fd5b505af1925050508015611113575060408051601f3d908101601f191682019092526111109181019061159d565b60015b61116d573d808015611141576040519150601f19603f3d011682016040523d82523d6000602084013e611146565b606091505b5080516111655760405162461bcd60e51b815260040161052b90611722565b805181602001fd5b6001600160e01b031916630a85bd0160e11b149050610b47565b506001949350505050565b60008042336040516020016111a8929190611693565b60408051601f19818403018152919052805160209091012090506109228382611d17565b6106698282604051806020016040528060008152506111ec565b3b151590565b6111f6838361121f565b6112036000848484611077565b6105e35760405162461bcd60e51b815260040161052b90611722565b6001600160a01b0382166112455760405162461bcd60e51b815260040161052b906119ec565b61124e81610a3b565b1561126b5760405162461bcd60e51b815260040161052b906117ba565b611277600083836105e3565b6001600160a01b03821660009081526003602052604081208054600192906112a0908490611c33565b909155505060008181526002602052604080822080546001600160a01b0319166001600160a01b03861690811790915590518392907fddf252ad1be2c89b69c2b068fc378daa952ba7f163c4a11628f55a4df523b3ef908290a45050565b82805461130a90611cc1565b90600052602060002090601f01602090048101928261132c5760008555611372565b82601f1061134557805160ff1916838001178555611372565b82800160010185558215611372579182015b82811115611372578251825591602001919060010190611357565b5061137e929150611382565b5090565b5b8082111561137e5760008155600101611383565b600067ffffffffffffffff808411156113b2576113b2611d57565b604051601f8501601f1916810160200182811182821017156113d6576113d6611d57565b6040528481529150818385018610156113ee57600080fd5b8484602083013760006020868301015250509392505050565b80356001600160a01b038116811461046d57600080fd5b60006020828403121561142f578081fd5b61092282611407565b6000806040838503121561144a578081fd5b61145383611407565b915061146160208401611407565b90509250929050565b60008060006060848603121561147e578081fd5b61148784611407565b925061149560208501611407565b9150604084013590509250925092565b600080600080608085870312156114ba578081fd5b6114c385611407565b93506114d160208601611407565b925060408501359150606085013567ffffffffffffffff8111156114f3578182fd5b8501601f81018713611503578182fd5b61151287823560208401611397565b91505092959194509250565b60008060408385031215611530578182fd5b61153983611407565b91506020830135801515811461154d578182fd5b809150509250929050565b6000806040838503121561156a578182fd5b61157383611407565b946020939093013593505050565b600060208284031215611592578081fd5b813561092281611d6d565b6000602082840312156115ae578081fd5b815161092281611d6d565b6000602082840312156115ca578081fd5b813567ffffffffffffffff8111156115e0578182fd5b8201601f810184136115f0578182fd5b610b4784823560208401611397565b600060208284031215611610578081fd5b5035919050565b60008060408385031215611629578182fd5b50508035926020909101359150565b60008151808452611650816020860160208601611c95565b601f01601f19169290920160200192915050565b60008351611676818460208801611c95565b83519083019061168a818360208801611c95565b01949350505050565b91825260601b6bffffffffffffffffffffffff1916602082015260340190565b6001600160a01b0391909116815260200190565b6001600160a01b03858116825284166020820152604081018390526080606082018190526000906116fa90830184611638565b9695505050505050565b901515815260200190565b6000602082526109226020830184611638565b60208082526032908201527f4552433732313a207472616e7366657220746f206e6f6e20455243373231526560408201527131b2b4bb32b91034b6b83632b6b2b73a32b960711b606082015260800190565b60208082526026908201527f4f776e61626c653a206e6577206f776e657220697320746865207a65726f206160408201526564647265737360d01b606082015260800190565b6020808252601c908201527f4552433732313a20746f6b656e20616c7265616479206d696e74656400000000604082015260600190565b60208082526024908201527f4552433732313a207472616e7366657220746f20746865207a65726f206164646040820152637265737360e01b606082015260800190565b60208082526019908201527f4552433732313a20617070726f766520746f2063616c6c657200000000000000604082015260600190565b60208082526024908201527f506c656173652073656e642074686520636f7272656374206d696e74696e67206040820152633332b29760e11b606082015260800190565b6020808252602c908201527f4552433732313a206f70657261746f7220717565727920666f72206e6f6e657860408201526b34b9ba32b73a103a37b5b2b760a11b606082015260800190565b60208082526038908201527f4552433732313a20617070726f76652063616c6c6572206973206e6f74206f7760408201527f6e6572206e6f7220617070726f76656420666f7220616c6c0000000000000000606082015260800190565b6020808252602a908201527f4552433732313a2062616c616e636520717565727920666f7220746865207a65604082015269726f206164647265737360b01b606082015260800190565b60208082526029908201527f4552433732313a206f776e657220717565727920666f72206e6f6e657869737460408201526832b73a103a37b5b2b760b91b606082015260800190565b6020808252818101527f4552433732313a206d696e7420746f20746865207a65726f2061646472657373604082015260600190565b6020808252602c908201527f4552433732313a20617070726f76656420717565727920666f72206e6f6e657860408201526b34b9ba32b73a103a37b5b2b760a11b606082015260800190565b6020808252818101527f4f776e61626c653a2063616c6c6572206973206e6f7420746865206f776e6572604082015260600190565b602080825260409082018190527f4e6f206368617261637465727320617661696c61626c6520746f206d696e7420908201527f617420746865206d6f6d656e742e20436865636b206261636b206c617465722e606082015260800190565b60208082526029908201527f4552433732313a207472616e73666572206f6620746f6b656e2074686174206960408201526839903737ba1037bbb760b91b606082015260800190565b6020808252602f908201527f4552433732314d657461646174613a2055524920717565727920666f72206e6f60408201526e3732bc34b9ba32b73a103a37b5b2b760891b606082015260800190565b60208082526021908201527f4552433732313a20617070726f76616c20746f2063757272656e74206f776e656040820152603960f91b606082015260800190565b60208082526031908201527f4552433732313a207472616e736665722063616c6c6572206973206e6f74206f6040820152701ddb995c881b9bdc88185c1c1c9bdd9959607a1b606082015260800190565b90815260200190565b60008219821115611c4657611c46611d2b565b500190565b600082611c5a57611c5a611d41565b500490565b6000816000190483118215151615611c7957611c79611d2b565b500290565b600082821015611c9057611c90611d2b565b500390565b60005b83811015611cb0578181015183820152602001611c98565b8381111561089a5750506000910152565b600281046001821680611cd557607f821691505b60208210811415611cf657634e487b7160e01b600052602260045260246000fd5b50919050565b6000600019821415611d1057611d10611d2b565b5060010190565b600082611d2657611d26611d41565b500690565b634e487b7160e01b600052601160045260246000fd5b634e487b7160e01b600052601260045260246000fd5b634e487b7160e01b600052604160045260246000fd5b6001600160e01b03198116811461098357600080fdfea2646970667358221220ed9d6b61b51b05f87acf18ad497b1afa42d253192c1d49a33b77ea9060f4031664736f6c63430008000033",
  "immutableReferences": {},
  "source": "// SPDX-License-Identifier: MIT\npragma solidity ^0.8.0;\n\nimport \"@openzeppelin/contracts/token/ERC721/ERC721.sol\";\nimport \"@openzeppelin/contracts/access/Ownable.sol\";\n\ncontract PandaNFT is ERC721, Ownable {\n\n    uint256 private COUNTER;\n\n    uint256 public mintingFee = 0.01 ether;\n    uint256 public divineLeft = 50;\n    uint256 public impLeft = 300;\n    \n    // Have a mapping to add new classes\n    // string[] public classes; // Loop through to find availabilities\n    // mapping (string => uint256) private classAvailabilities; // SEE IF YOU CAN USE STRINGS AS MAPPING KEYS\n    // classAvailabilities[divine] = 50;\n    // classAvailabilities[imp] = 300;\n\n    struct Panda {\n        string name;\n        uint256 id;\n        uint256 dna; // HOW MUCH DO WE WANT TO PUT ON CHAIN //KEEP ONLY THINGS THAT WONT CHANGE (NAME, ID, RARITY\n        uint256 level; // CHANGING THINGS ON THE BLOCKCHAIN CAN COST AND BE A BARRIER FOR PLAYERS. wE CAN DO ALL THIS LOGIC ON THE FRONTEND WITH THE GAME DEVS\n        uint256 rarity; // 50 Divine and 300 Imp and others but set with block.timestamp when the other rarities are accessible\n        uint256 birthTime; // Set this with block.timestamp, include function to mature (require birthTime < block.timestamp + 10 days)\n        bool isAdult; // Call hatch function to set this to true after 3 days\n    }\n\n    Panda[] private Pandas;\n\n    event NewPanda(address indexed owner, uint256 indexed id, uint256 indexed dna);\n\n    constructor(string memory _name, string memory _symbol)\n        ERC721(_name, _symbol) {}\n\n\n    // Create Panda\n    function mintPanda(string memory _name) payable public {\n        require(impLeft + divineLeft > 0, \"No characters available to mint at the moment. Check back later.\");\n        require(msg.value == mintingFee, \"Please send the correct minting fee.\");\n        _mintPanda(msg.sender, _name);\n    }\n\n\n    // Hatch Panda\n    function hatchPanda(uint256 _id) public {\n        // require(ownerOf(NFT) == msg.sender/has ownership)\n        // require(Panda.id.birthTime + 10 days >= block.timestamp, \"Your panda is not ready yet.\");\n        // Panda.id.isAdult = true;\n    }\n\n\n    // HELPERS\n    // Generate Random Number\n    function _genRandomNum(uint256 _mod) internal view returns (uint256) {\n        uint256 randomNumber = uint256(keccak256(abi.encodePacked(block.timestamp, msg.sender))); // Find more secure way of gen random numbers\n        return randomNumber % _mod;\n    }\n\n    // Internal Mint Function\n    function _mintPanda(address _to, string memory _name) internal {\n\n        uint256 _dna = _genRandomNum(10**16);\n        uint8 randRarity = uint8(_genRandomNum(divineLeft + impLeft));\n        if(randRarity > impLeft) { // THIS WILL CHANGE BASED ON HOW MANY CLASSES WE HAVE\n            divineLeft -= 1;        //\n        } else {\n            impLeft -= 1;\n        }\n\n        Panda memory newPanda = Panda(_name, COUNTER, _dna, 1, randRarity, block.timestamp, false);\n        Pandas.push(newPanda);\n        _safeMint(_to, COUNTER);\n\n        emit NewPanda(msg.sender, COUNTER, _dna);\n        COUNTER++;\n    }\n\n\n    // Admin Functions\n    function setRarities(uint256 _divine, uint256 _imp) external onlyOwner {\n        divineLeft = _divine;\n        impLeft = _imp;\n    }\n\n    function setMintingFee(uint256 _fee) external onlyOwner {\n        mintingFee = _fee * 10**18; // Set minting fee in BNB\n    }\n\n    function withdrawBNB() external onlyOwner {\n        address payable _owner = payable(owner());\n        _owner.transfer(address(this).balance);\n    }\n}",
  "sourcePath": "/home/dev/Desktop/Sol/Hashlips/panda_game/contracts/PandaNFT.sol",
  "compiler": {
    "name": "solc",
    "version": "0.8.0+commit.c7dfd78e.Emscripten.clang"
  },
  "schemaVersion": "3.4.3",
  "updatedAt": "2021-12-29T04:55:49.504Z",
  "networkType": "ethereum",
  "devdoc": {
    "kind": "dev",
    "methods": {
      "approve(address,uint256)": {
        "details": "See {IERC721-approve}."
      },
      "balanceOf(address)": {
        "details": "See {IERC721-balanceOf}."
      },
      "getApproved(uint256)": {
        "details": "See {IERC721-getApproved}."
      },
      "isApprovedForAll(address,address)": {
        "details": "See {IERC721-isApprovedForAll}."
      },
      "name()": {
        "details": "See {IERC721Metadata-name}."
      },
      "owner()": {
        "details": "Returns the address of the current owner."
      },
      "ownerOf(uint256)": {
        "details": "See {IERC721-ownerOf}."
      },
      "renounceOwnership()": {
        "details": "Leaves the contract without owner. It will not be possible to call `onlyOwner` functions anymore. Can only be called by the current owner. NOTE: Renouncing ownership will leave the contract without an owner, thereby removing any functionality that is only available to the owner."
      },
      "safeTransferFrom(address,address,uint256)": {
        "details": "See {IERC721-safeTransferFrom}."
      },
      "safeTransferFrom(address,address,uint256,bytes)": {
        "details": "See {IERC721-safeTransferFrom}."
      },
      "setApprovalForAll(address,bool)": {
        "details": "See {IERC721-setApprovalForAll}."
      },
      "supportsInterface(bytes4)": {
        "details": "See {IERC165-supportsInterface}."
      },
      "symbol()": {
        "details": "See {IERC721Metadata-symbol}."
      },
      "tokenURI(uint256)": {
        "details": "See {IERC721Metadata-tokenURI}."
      },
      "transferFrom(address,address,uint256)": {
        "details": "See {IERC721-transferFrom}."
      },
      "transferOwnership(address)": {
        "details": "Transfers ownership of the contract to a new account (`newOwner`). Can only be called by the current owner."
      }
    },
    "version": 1
  },
  "userdoc": {
    "kind": "user",
    "methods": {},
    "version": 1
  }
}